{
  "contractName": "MyContract",
  "abi": [
    {
      "anonymous": false,
      "inputs": [
        {
          "indexed": true,
          "internalType": "address",
          "name": "creator",
          "type": "address"
        },
        {
          "indexed": false,
          "internalType": "string",
          "name": "description",
          "type": "string"
        }
      ],
      "name": "NewProposal",
      "type": "event"
    },
    {
      "anonymous": false,
      "inputs": [
        {
          "indexed": true,
          "internalType": "address",
          "name": "voter",
          "type": "address"
        },
        {
          "indexed": false,
          "internalType": "uint256",
          "name": "proposalId",
          "type": "uint256"
        },
        {
          "indexed": false,
          "internalType": "bool",
          "name": "vote",
          "type": "bool"
        },
        {
          "indexed": false,
          "internalType": "uint256",
          "name": "stakedAmount",
          "type": "uint256"
        }
      ],
      "name": "Voted",
      "type": "event"
    },
    {
      "inputs": [
        {
          "internalType": "address",
          "name": "",
          "type": "address"
        },
        {
          "internalType": "uint256",
          "name": "",
          "type": "uint256"
        }
      ],
      "name": "hasVoted",
      "outputs": [
        {
          "internalType": "bool",
          "name": "",
          "type": "bool"
        }
      ],
      "stateMutability": "view",
      "type": "function",
      "constant": true
    },
    {
      "inputs": [
        {
          "internalType": "address",
          "name": "",
          "type": "address"
        }
      ],
      "name": "isMember",
      "outputs": [
        {
          "internalType": "bool",
          "name": "",
          "type": "bool"
        }
      ],
      "stateMutability": "view",
      "type": "function",
      "constant": true
    },
    {
      "inputs": [
        {
          "internalType": "uint256",
          "name": "",
          "type": "uint256"
        }
      ],
      "name": "proposals",
      "outputs": [
        {
          "internalType": "string",
          "name": "description",
          "type": "string"
        },
        {
          "internalType": "uint256",
          "name": "voteCountYes",
          "type": "uint256"
        },
        {
          "internalType": "uint256",
          "name": "voteCountNo",
          "type": "uint256"
        },
        {
          "internalType": "bool",
          "name": "active",
          "type": "bool"
        },
        {
          "internalType": "address",
          "name": "creator",
          "type": "address"
        }
      ],
      "stateMutability": "view",
      "type": "function",
      "constant": true
    },
    {
      "inputs": [
        {
          "internalType": "address",
          "name": "",
          "type": "address"
        },
        {
          "internalType": "uint256",
          "name": "",
          "type": "uint256"
        }
      ],
      "name": "userStakes",
      "outputs": [
        {
          "internalType": "uint256",
          "name": "",
          "type": "uint256"
        }
      ],
      "stateMutability": "view",
      "type": "function",
      "constant": true
    },
    {
      "inputs": [],
      "name": "joinDAO",
      "outputs": [],
      "stateMutability": "nonpayable",
      "type": "function"
    },
    {
      "inputs": [
        {
          "internalType": "string",
          "name": "_description",
          "type": "string"
        },
        {
          "internalType": "address",
          "name": "_createdBy",
          "type": "address"
        }
      ],
      "name": "createProposal",
      "outputs": [],
      "stateMutability": "nonpayable",
      "type": "function"
    },
    {
      "inputs": [
        {
          "internalType": "uint256",
          "name": "_proposalId",
          "type": "uint256"
        },
        {
          "internalType": "bool",
          "name": "_voteYes",
          "type": "bool"
        }
      ],
      "name": "vote",
      "outputs": [],
      "stateMutability": "payable",
      "type": "function",
      "payable": true
    },
    {
      "inputs": [
        {
          "internalType": "uint256",
          "name": "_proposalId",
          "type": "uint256"
        }
      ],
      "name": "closeProposal",
      "outputs": [],
      "stateMutability": "nonpayable",
      "type": "function"
    }
  ],
  "bytecode": "0x608060405234801561001057600080fd5b50610b6f806100206000396000f3fe60806040526004361061007b5760003560e01c8063a230c5241161004e578063a230c52414610147578063b5d5b5fa14610177578063c9d27afe146101bd578063f63d13d7146101d057600080fd5b8063013cf08b146100805780630386a016146100ba5780633ed8e9b4146100dc57806342545825146100fc575b600080fd5b34801561008c57600080fd5b506100a061009b366004610792565b6101fc565b6040516100b19594939291906107ab565b60405180910390f35b3480156100c657600080fd5b506100da6100d5366004610792565b6102d9565b005b3480156100e857600080fd5b506100da6100f7366004610842565b61038f565b34801561010857600080fd5b506101376101173660046108c3565b600360209081526000928352604080842090915290825290205460ff1681565b60405190151581526020016100b1565b34801561015357600080fd5b506101376101623660046108ed565b60006020819052908152604090205460ff1681565b34801561018357600080fd5b506101af6101923660046108c3565b600260209081526000928352604080842090915290825290205481565b6040519081526020016100b1565b6100da6101cb36600461090f565b6104e8565b3480156101dc57600080fd5b506100da336000908152602081905260409020805460ff19166001179055565b6001818154811061020c57600080fd5b906000526020600020906004020160009150905080600001805461022f90610944565b80601f016020809104026020016040519081016040528092919081815260200182805461025b90610944565b80156102a85780601f1061027d576101008083540402835291602001916102a8565b820191906000526020600020905b81548152906001019060200180831161028b57829003601f168201915b50505050600183015460028401546003909401549293909290915060ff81169061010090046001600160a01b031685565b3360009081526020819052604090205460ff166103115760405162461bcd60e51b81526004016103089061097e565b60405180910390fd5b60015481106103555760405162461bcd60e51b815260206004820152601060248201526f125b9d985b1a59081c1c9bdc1bdcd85b60821b6044820152606401610308565b60006001828154811061036a5761036a6109a8565b60009182526020909120600490910201600301805460ff191691151591909117905550565b3360009081526020819052604090205460ff166103be5760405162461bcd60e51b81526004016103089061097e565b6040805160c06020601f8601819004028201810190925260a08101848152600192829190879087908190850183828082843760009201829052509385525050506020808301829052604083018290526001606084018190526001600160a01b0387166080909401939093528454928301855593815292909220815191926004020190819061044c9082610a23565b506020820151600182015560408083015160028301556060830151600390920180546080909401516001600160a01b031661010002610100600160a81b0319931515939093166001600160a81b031990941693909317919091179091555133907fe5cbc6737159266b5482fcbbe3c30d303d0dacaa7438e354a46181430f212368906104db9086908690610ae3565b60405180910390a2505050565b3360009081526020819052604090205460ff166105175760405162461bcd60e51b81526004016103089061097e565b600154821061055b5760405162461bcd60e51b815260206004820152601060248201526f125b9d985b1a59081c1c9bdc1bdcd85b60821b6044820152606401610308565b6001828154811061056e5761056e6109a8565b600091825260209091206003600490920201015460ff166105c75760405162461bcd60e51b815260206004820152601360248201527250726f706f73616c206e6f742061637469766560681b6044820152606401610308565b33600090815260036020908152604080832085845290915290205460ff16156106325760405162461bcd60e51b815260206004820152601e60248201527f416c726561647920766f746564206f6e20746869732070726f706f73616c00006044820152606401610308565b6000341161068e5760405162461bcd60e51b815260206004820152602360248201527f4d757374207374616b65206120706f73697469766520616d6f756e74206f662060448201526208aa8960eb1b6064820152608401610308565b80156106cf57600182815481106106a7576106a76109a8565b6000918252602082206001600490920201018054916106c583610b12565b9190505550610706565b600182815481106106e2576106e26109a8565b60009182526020822060026004909202010180549161070083610b12565b91905055505b336000818152600260209081526040808320868452825280832034908190558484526003835281842087855290925291829020805460ff1916600117905590517f9fea94799b68dbb994c4e44547ea7b5c9e4068fbc385b8b688005a16b60c3cc69161078691869186919283529015156020830152604082015260600190565b60405180910390a25050565b6000602082840312156107a457600080fd5b5035919050565b60a08152600086518060a084015260005b818110156107d9576020818a0181015160c08684010152016107bc565b50600060c0828501015260c0601f19601f83011684010191505085602083015284604083015261080d606083018515159052565b6001600160a01b03831660808301529695505050505050565b80356001600160a01b038116811461083d57600080fd5b919050565b60008060006040848603121561085757600080fd5b833567ffffffffffffffff8082111561086f57600080fd5b818601915086601f83011261088357600080fd5b81358181111561089257600080fd5b8760208285010111156108a457600080fd5b6020928301955093506108ba9186019050610826565b90509250925092565b600080604083850312156108d657600080fd5b6108df83610826565b946020939093013593505050565b6000602082840312156108ff57600080fd5b61090882610826565b9392505050565b6000806040838503121561092257600080fd5b823591506020830135801515811461093957600080fd5b809150509250929050565b600181811c9082168061095857607f821691505b60208210810361097857634e487b7160e01b600052602260045260246000fd5b50919050565b60208082526010908201526f2737ba1030902220a79036b2b6b132b960811b604082015260600190565b634e487b7160e01b600052603260045260246000fd5b634e487b7160e01b600052604160045260246000fd5b601f821115610a1e57600081815260208120601f850160051c810160208610156109fb5750805b601f850160051c820191505b81811015610a1a57828155600101610a07565b5050505b505050565b815167ffffffffffffffff811115610a3d57610a3d6109be565b610a5181610a4b8454610944565b846109d4565b602080601f831160018114610a865760008415610a6e5750858301515b600019600386901b1c1916600185901b178555610a1a565b600085815260208120601f198616915b82811015610ab557888601518255948401946001909101908401610a96565b5085821015610ad35787850151600019600388901b60f8161c191681555b5050505050600190811b01905550565b60208152816020820152818360408301376000818301604090810191909152601f909201601f19160101919050565b600060018201610b3257634e487b7160e01b600052601160045260246000fd5b506001019056fea2646970667358221220d446ac5d4ec53e8b9c801bea0bef5760438ac22f36c73a0d14174778bd327eeb64736f6c63430008130033",
  "immutableReferences": {},
  "source": "// SPDX-License-Identifier: MIT\r\npragma solidity 0.8.19;\r\n\r\ncontract MyContract {\r\n    \r\n    struct Proposal {\r\n        string description;\r\n        uint voteCountYes;\r\n        uint voteCountNo;\r\n        bool active;\r\n        address creator;\r\n    }\r\n\r\n    mapping(address => bool) public isMember;\r\n    Proposal[] public proposals;\r\n    \r\n    // Keeps track of how much ETH a user has staked on a proposal.\r\n    mapping(address => mapping(uint => uint256)) public userStakes;\r\n    \r\n    mapping(address => mapping(uint => bool)) public hasVoted;\r\n\r\n    event NewProposal(address indexed creator, string description);\r\n    event Voted(address indexed voter, uint proposalId, bool vote, uint256 stakedAmount);\r\n\r\n    modifier onlyMember() {\r\n        require(isMember[msg.sender], \"Not a DAO member\");\r\n        _;\r\n    }\r\n\r\n    function joinDAO() external {\r\n        isMember[msg.sender] = true;\r\n    }\r\n\r\n    function createProposal(string calldata _description, address _createdBy) external onlyMember {\r\n        proposals.push(Proposal({\r\n            description: _description,\r\n            voteCountYes: 0,\r\n            voteCountNo: 0,\r\n            active: true,\r\n            creator: _createdBy\r\n        }));\r\n\r\n        emit NewProposal(msg.sender, _description);\r\n    }\r\n\r\n    function vote(uint _proposalId, bool _voteYes) external payable onlyMember {\r\n        require(_proposalId < proposals.length, \"Invalid proposal\");\r\n        require(proposals[_proposalId].active, \"Proposal not active\");\r\n        require(!hasVoted[msg.sender][_proposalId], \"Already voted on this proposal\");\r\n        require(msg.value > 0, \"Must stake a positive amount of ETH\");\r\n        \r\n        if (_voteYes) {\r\n            proposals[_proposalId].voteCountYes++;\r\n        } else {\r\n            proposals[_proposalId].voteCountNo++;\r\n        }\r\n\r\n        userStakes[msg.sender][_proposalId] = msg.value;\r\n        hasVoted[msg.sender][_proposalId] = true;\r\n\r\n        emit Voted(msg.sender, _proposalId, _voteYes, msg.value);\r\n    }\r\n\r\n    function closeProposal(uint _proposalId) external onlyMember {\r\n        require(_proposalId < proposals.length, \"Invalid proposal\");\r\n        proposals[_proposalId].active = false;\r\n    }\r\n}\r\n",
  "sourcePath": "C:\\Projects\\Blockchain\\dao-voting-app\\contracts\\MyContract.sol",
  "compiler": {
    "name": "solc",
    "version": "0.8.19+commit.7dd6d404.Emscripten.clang"
  },
  "schemaVersion": "3.4.16",
  "updatedAt": "2023-10-08T17:39:43.427Z",
  "networkType": "ethereum",
  "devdoc": {
    "kind": "dev",
    "methods": {},
    "version": 1
  },
  "userdoc": {
    "kind": "user",
    "methods": {},
    "version": 1
  }
}